{
    "abi": [
        {
            "type": "constructor",
            "inputs": [
                {
                    "name": "_token",
                    "type": "address",
                    "internalType": "contract IERC20"
                }
            ],
            "stateMutability": "nonpayable"
        },
        {
            "type": "function",
            "name": "lock",
            "inputs": [
                {
                    "name": "amount",
                    "type": "uint256",
                    "internalType": "uint256"
                }
            ],
            "outputs": [],
            "stateMutability": "nonpayable"
        },
        {
            "type": "function",
            "name": "owner",
            "inputs": [],
            "outputs": [
                {
                    "name": "",
                    "type": "address",
                    "internalType": "address"
                }
            ],
            "stateMutability": "view"
        },
        {
            "type": "function",
            "name": "renounceOwnership",
            "inputs": [],
            "outputs": [],
            "stateMutability": "nonpayable"
        },
        {
            "type": "function",
            "name": "token",
            "inputs": [],
            "outputs": [
                {
                    "name": "",
                    "type": "address",
                    "internalType": "contract IERC20"
                }
            ],
            "stateMutability": "view"
        },
        {
            "type": "function",
            "name": "transferOwnership",
            "inputs": [
                {
                    "name": "newOwner",
                    "type": "address",
                    "internalType": "address"
                }
            ],
            "outputs": [],
            "stateMutability": "nonpayable"
        },
        {
            "type": "function",
            "name": "unlock",
            "inputs": [
                {
                    "name": "user",
                    "type": "address",
                    "internalType": "address"
                },
                {
                    "name": "amount",
                    "type": "uint256",
                    "internalType": "uint256"
                }
            ],
            "outputs": [],
            "stateMutability": "nonpayable"
        },
        {
            "type": "event",
            "name": "BridgeLock",
            "inputs": [
                {
                    "name": "user",
                    "type": "address",
                    "indexed": true,
                    "internalType": "address"
                },
                {
                    "name": "amount",
                    "type": "uint256",
                    "indexed": false,
                    "internalType": "uint256"
                },
                {
                    "name": "timestamp",
                    "type": "uint256",
                    "indexed": false,
                    "internalType": "uint256"
                }
            ],
            "anonymous": false
        },
        {
            "type": "event",
            "name": "BridgeUnlock",
            "inputs": [
                {
                    "name": "user",
                    "type": "address",
                    "indexed": true,
                    "internalType": "address"
                },
                {
                    "name": "amount",
                    "type": "uint256",
                    "indexed": false,
                    "internalType": "uint256"
                },
                {
                    "name": "timestamp",
                    "type": "uint256",
                    "indexed": false,
                    "internalType": "uint256"
                }
            ],
            "anonymous": false
        },
        {
            "type": "event",
            "name": "OwnershipTransferred",
            "inputs": [
                {
                    "name": "previousOwner",
                    "type": "address",
                    "indexed": true,
                    "internalType": "address"
                },
                {
                    "name": "newOwner",
                    "type": "address",
                    "indexed": true,
                    "internalType": "address"
                }
            ],
            "anonymous": false
        },
        {
            "type": "error",
            "name": "OwnableInvalidOwner",
            "inputs": [
                {
                    "name": "owner",
                    "type": "address",
                    "internalType": "address"
                }
            ]
        },
        {
            "type": "error",
            "name": "OwnableUnauthorizedAccount",
            "inputs": [
                {
                    "name": "account",
                    "type": "address",
                    "internalType": "address"
                }
            ]
        },
        {
            "type": "error",
            "name": "TransferFromFalse",
            "inputs": [
                {
                    "name": "from",
                    "type": "address",
                    "internalType": "address"
                },
                {
                    "name": "amount",
                    "type": "uint256",
                    "internalType": "uint256"
                },
                {
                    "name": "timestamp",
                    "type": "uint256",
                    "internalType": "uint256"
                }
            ]
        },
        {
            "type": "error",
            "name": "TransferToFalse",
            "inputs": [
                {
                    "name": "to",
                    "type": "address",
                    "internalType": "address"
                },
                {
                    "name": "amount",
                    "type": "uint256",
                    "internalType": "uint256"
                },
                {
                    "name": "timestamp",
                    "type": "uint256",
                    "internalType": "uint256"
                }
            ]
        }
    ],
    "bytecode": {
        "object": "0x608060405234801561000f575f5ffd5b5060405161056538038061056583398101604081905261002e916100d1565b338061005357604051631e4fbdf760e01b81525f600482015260240160405180910390fd5b61005c81610082565b50600180546001600160a01b0319166001600160a01b03929092169190911790556100fe565b5f80546001600160a01b038381166001600160a01b0319831681178455604051919092169283917f8be0079c531659141344cd1fd0a4f28419497f9722a3daafe3b4186f6b6457e09190a35050565b5f602082840312156100e1575f5ffd5b81516001600160a01b03811681146100f7575f5ffd5b9392505050565b61045a8061010b5f395ff3fe608060405234801561000f575f5ffd5b5060043610610060575f3560e01c8063715018a6146100645780637eee288d1461006e5780638da5cb5b14610081578063dd467064146100a9578063f2fde38b146100bc578063fc0c546a146100cf575b5f5ffd5b61006c6100e2565b005b61006c61007c3660046103a6565b6100f5565b5f546001600160a01b03165b6040516001600160a01b03909116815260200160405180910390f35b61006c6100b73660046103ce565b6101ee565b61006c6100ca3660046103e5565b6102d3565b60015461008d906001600160a01b031681565b6100ea610310565b6100f35f61033c565b565b60015460405163a9059cbb60e01b81526001600160a01b038481166004830152602482018490525f92169063a9059cbb906044016020604051808303815f875af1158015610145573d5f5f3e3d5ffd5b505050506040513d601f19601f820116820180604052508101906101699190610405565b9050806101a6576040516354fd77a560e01b81526001600160a01b0384166004820152602481018390524260448201526064015b60405180910390fd5b604080518381524260208201526001600160a01b038516917fc5e8e39f3f396ac0e154c0222bff53a1dd1a8e0302446ebe5ab8b70c8006203a910160405180910390a2505050565b6001546040516323b872dd60e01b8152336004820152306024820152604481018390525f916001600160a01b0316906323b872dd906064016020604051808303815f875af1158015610242573d5f5f3e3d5ffd5b505050506040513d601f19601f820116820180604052508101906102669190610405565b90508061029557604051633bc6a00960e11b81523360048201526024810183905242604482015260640161019d565b6040805183815242602082015233917f06886abf98a745f80a13e5b70dbd0a155c4d19950db60479635dc48984a39f89910160405180910390a25050565b6102db610310565b6001600160a01b03811661030457604051631e4fbdf760e01b81525f600482015260240161019d565b61030d8161033c565b50565b5f546001600160a01b031633146100f35760405163118cdaa760e01b815233600482015260240161019d565b5f80546001600160a01b038381166001600160a01b0319831681178455604051919092169283917f8be0079c531659141344cd1fd0a4f28419497f9722a3daafe3b4186f6b6457e09190a35050565b80356001600160a01b03811681146103a1575f5ffd5b919050565b5f5f604083850312156103b7575f5ffd5b6103c08361038b565b946020939093013593505050565b5f602082840312156103de575f5ffd5b5035919050565b5f602082840312156103f5575f5ffd5b6103fe8261038b565b9392505050565b5f60208284031215610415575f5ffd5b815180151581146103fe575f5ffdfea2646970667358221220303b8ef54e7d96adcf5b8f4ac4f211e1ae64d835a6accb1d6957d43cbd09a33064736f6c63430008210033",
        "linkReferences": {}
    },
    "methodIdentifiers": {
        "lock(uint256)": "dd467064",
        "owner()": "8da5cb5b",
        "renounceOwnership()": "715018a6",
        "token()": "fc0c546a",
        "transferOwnership(address)": "f2fde38b",
        "unlock(address,uint256)": "7eee288d"
    },
    "id": 27
}